:1000000018C1000035C1000033C1000031C100003B
:100010002FC100002DC100002BC1000029C100002C
:1000200027C1000025C1000023C1000021C100003C
:100030001FC100001DC100001BC1000019C100004C
:1000400017C1000015C1000013C1000011C100005C
:100050000FC100000DC100000BC1000034C1000041
:1000600007C1000005C1000003C1000001C100007C
:10007000FFC00000FDC00000FBC00000F9C0000090
:10008000F7C00000F5C00000F3C00000F1C00000A0
:10009000EFC00000EDC00000EBC00000E9C00000B0
:1000A000E7C00000E5C00000E3C00000E1C00000C0
:1000B000DFC00000DDC00000DBC00000D9C00000D0
:1000C000D7C00000D5C00000D3C00000D1C00000E0
:1000D000CFC00000CDC00000CBC00000C9C00000F0
:1000E000C7C000007A027F0284028E0298021103C8
:1000F000A202AA02B202BC02C602D002DF02E902D8
:100100001103F302FD02070332033503240328031E
:100110002E036C0339033D03430347034B03510391
:10012000550359036C035F036303670300000A0B65
:1001300002090C0D0E080703040100000000000076
:1001400000000000000000000000000000000000AF
:10015000000000000000000012111000000000006C
:10016000000000000000000000000000000000008F
:1001700000000102102020080810204010204080BC
:10018000020102010804020101020408102040805B
:1001900080402010080402018004020180402010E9
:1001A0000804020108040201010204081020408032
:1001B0000102040810204080050505050705080810
:1001C0000808020202020A0A0808040404040101E1
:1001D00001010101010103030303030303030407F6
:1001E00007070C0C0C0C0C0C0C0C0202020206068D
:1001F0000606060606060B0B0B0B0B0B0B0B000083
:100200002200250028002B002E00310034000201BE
:100210000000050108010B01000021002400270057
:100220002A002D0030003300010100000401070105
:100230000A0111241FBECFEFD1E2DEBFCDBF00E027
:100240000CBF12E0A0E0B2E0E0EEF7E000E00BBF90
:1002500002C007900D92A430B107D9F722E0A4E0C4
:10026000B2E001C01D92AF30B207E1F7A5D2B6C22D
:10027000C7CE61E08091020230C2609104027091A9
:1002800005028091020213D12091000230910102F7
:100290008091040290910502820F931F90930502B2
:1002A00080930402009719F08F3F910539F431953E
:1002B0002195310930930102209300026EE170E034
:1002C00080E090E06DC01F920F920FB60F92112444
:1002D0002F933F938F939F93AF93BF938091070288
:1002E00090910802A0910902B0910A023091060291
:1002F00023E0230F2D3720F40196A11DB11D05C069
:1003000026E8230F0296A11DB11D209306028093BB
:10031000070290930802A0930902B0930A02809109
:100320000B0290910C02A0910D02B0910E02019669
:10033000A11DB11D80930B0290930C02A0930D029E
:10034000B0930E02BF91AF919F918F913F912F91EA
:100350000F900FBE0F901F9018953FB7F8948091A3
:100360000B0290910C02A0910D02B0910E0226B5E5
:10037000A89B05C02F3F19F00196A11DB11D3FBFDD
:100380006627782F892F9A2F620F711D811D911D6D
:1003900042E0660F771F881F991F4A95D1F708958D
:1003A000CF92DF92EF92FF92CF93DF936B017C01AC
:1003B000D4DFEB01C114D104E104F10479F007D2D8
:1003C000CCDF6C1B7D0B683E7340A0F381E0C81A44
:1003D000D108E108F108C851DC4FECCFDF91CF9193
:1003E000FF90EF90DF90CF900895789484B582606D
:1003F00084BD84B5816084BD85B5826085BD85B5C9
:10040000816085BDEEE6F0E0808181608083E1E877
:10041000F0E01082808182608083808181608083AF
:10042000E0E8F0E0808181608083E1EBF0E08081B2
:1004300084608083E0EBF0E0808181608083E1E98B
:10044000F0E0808182608083808181608083E0E948
:10045000F0E0808181608083E1EAF0E08081826069
:100460008083808181608083E0EAF0E08081816028
:100470008083E1E2F1E0808182608083808181601D
:100480008083E0E2F1E0808181608083EAE7F0E050
:1004900080818460808380818260808380818160AC
:1004A00080838081806880831092C10008951F93AB
:1004B000CF93DF93182FEB0161E00FD1209711F458
:1004C00060E004C0CF3FD10531F461E0812FDF91BE
:1004D000CF911F913BC1E12FF0E0E45DFE4F4491CD
:1004E00050E0FA013197E231F10508F09AC0EE5878
:1004F000FF4F6EC184B5806884BDC7BD97C084B509
:10050000806284BDC8BD92C0809180008068809365
:100510008000D0938900C093880088C080918000BB
:10052000806280938000D0938B00C0938A007EC04D
:1005300080918000886080938000D0938D00C0936C
:100540008C0074C08091B00080688093B000C0932C
:10055000B3006CC08091B00080628093B000C09303
:10056000B40064C080919000806880939000D09324
:100570009900C09398005AC0809190008062809347
:100580009000D0939B00C0939A0050C0809190003F
:10059000886080939000D0939D00C0939C0046C0DB
:1005A0008091A00080688093A0008091A0008F7B44
:1005B0008093A000D093A900C093A80037C0809179
:1005C000A00080628093A000D093AB00C093AA00EB
:1005D0002DC08091A00088608093A000D093AD00D2
:1005E000C093AC0023C080912001806880932001DB
:1005F000D0932901C093280119C080912001806205
:1006000080932001D0932B01C0932A010FC08091C9
:100610002001886080932001D0932D01C0932C018C
:1006200005C0C038D1050CF050CF4ACFDF91CF9133
:100630001F91089590E0FC013197E231F10508F037
:100640004BC0EC57FF4FC4C0809180008F7703C030
:10065000809180008F7D809380000895809180003C
:10066000877FF9CF84B58F7702C084B58F7D84BD35
:1006700008958091B0008F7703C08091B0008F7D86
:100680008093B0000895809190008F7707C080918B
:1006900090008F7D03C080919000877F80939000B1
:1006A00008958091A0008F7707C08091A0008F7D72
:1006B00003C08091A000877F8093A000089580915F
:1006C00020018F7707C0809120018F7D03C080912A
:1006D0002001877F809320010895CF93DF9390E0DE
:1006E000FC01EE58FE4F2491FC01E854FE4F84912A
:1006F000882349F190E0880F991FFC01E85EFD4FC7
:10070000A591B49182509E4FFC01C591D4919FB7A1
:10071000611108C0F8948C91209582238C93888174
:1007200082230AC0623051F4F8948C91322F3095B4
:1007300083238C938881822B888304C0F8948C91C6
:10074000822B8C939FBFDF91CF9108950F931F93BE
:10075000CF93DF931F92CDB7DEB7282F30E0F9019A
:10076000E45DFE4F8491F901EE58FE4F1491F901BA
:10077000E854FE4F04910023C1F0882319F06983E7
:1007800059DF6981E02FF0E0EE0FFF1FE250FE4FCE
:10079000A591B4919FB7F8948C91611103C0109505
:1007A000812301C0812B8C939FBF0F90DF91CF914C
:1007B0001F910F910895089518DEFDDF5ADDC0E006
:1007C000D0E05BDD2097E9F30E940000FACF0895A6
:1007D000EE0FFF1F0590F491E02D1994F894FFCFD0
:0407E00005000D0003
:00000001FF
